{
  "contractName": "MultiSigWallet",
  "abi": [
    {
      "constant": true,
      "inputs": [
        {
          "internalType": "uint256",
          "name": "",
          "type": "uint256"
        }
      ],
      "name": "owners",
      "outputs": [
        {
          "internalType": "address",
          "name": "",
          "type": "address"
        }
      ],
      "payable": false,
      "stateMutability": "view",
      "type": "function"
    },
    {
      "constant": true,
      "inputs": [
        {
          "internalType": "address",
          "name": "",
          "type": "address"
        }
      ],
      "name": "isOwner",
      "outputs": [
        {
          "internalType": "bool",
          "name": "",
          "type": "bool"
        }
      ],
      "payable": false,
      "stateMutability": "view",
      "type": "function"
    },
    {
      "constant": true,
      "inputs": [
        {
          "internalType": "uint256",
          "name": "",
          "type": "uint256"
        }
      ],
      "name": "transactions",
      "outputs": [
        {
          "internalType": "address",
          "name": "to",
          "type": "address"
        },
        {
          "internalType": "uint256",
          "name": "value",
          "type": "uint256"
        },
        {
          "internalType": "bytes",
          "name": "data",
          "type": "bytes"
        },
        {
          "internalType": "bool",
          "name": "executed",
          "type": "bool"
        },
        {
          "internalType": "uint256",
          "name": "numConfirmations",
          "type": "uint256"
        }
      ],
      "payable": false,
      "stateMutability": "view",
      "type": "function"
    },
    {
      "constant": true,
      "inputs": [],
      "name": "numConfirmationsRequired",
      "outputs": [
        {
          "internalType": "uint256",
          "name": "",
          "type": "uint256"
        }
      ],
      "payable": false,
      "stateMutability": "view",
      "type": "function"
    },
    {
      "inputs": [
        {
          "internalType": "address[]",
          "name": "_owners",
          "type": "address[]"
        },
        {
          "internalType": "uint256",
          "name": "_numConfirmationsRequired",
          "type": "uint256"
        }
      ],
      "payable": false,
      "stateMutability": "nonpayable",
      "type": "constructor"
    },
    {
      "payable": true,
      "stateMutability": "payable",
      "type": "fallback"
    },
    {
      "anonymous": false,
      "inputs": [
        {
          "indexed": true,
          "internalType": "address",
          "name": "sender",
          "type": "address"
        },
        {
          "indexed": false,
          "internalType": "uint256",
          "name": "amount",
          "type": "uint256"
        },
        {
          "indexed": false,
          "internalType": "uint256",
          "name": "balance",
          "type": "uint256"
        }
      ],
      "name": "Deposit",
      "type": "event"
    },
    {
      "anonymous": false,
      "inputs": [
        {
          "indexed": true,
          "internalType": "address",
          "name": "owner",
          "type": "address"
        },
        {
          "indexed": true,
          "internalType": "uint256",
          "name": "txIndex",
          "type": "uint256"
        },
        {
          "indexed": true,
          "internalType": "address",
          "name": "to",
          "type": "address"
        },
        {
          "indexed": false,
          "internalType": "uint256",
          "name": "value",
          "type": "uint256"
        },
        {
          "indexed": false,
          "internalType": "bytes",
          "name": "data",
          "type": "bytes"
        }
      ],
      "name": "SubmitTransaction",
      "type": "event"
    },
    {
      "anonymous": false,
      "inputs": [
        {
          "indexed": true,
          "internalType": "address",
          "name": "owner",
          "type": "address"
        },
        {
          "indexed": true,
          "internalType": "uint256",
          "name": "txIndex",
          "type": "uint256"
        }
      ],
      "name": "ConfirmTransaction",
      "type": "event"
    },
    {
      "anonymous": false,
      "inputs": [
        {
          "indexed": true,
          "internalType": "address",
          "name": "owner",
          "type": "address"
        },
        {
          "indexed": true,
          "internalType": "uint256",
          "name": "txIndex",
          "type": "uint256"
        }
      ],
      "name": "RevokeTransaction",
      "type": "event"
    },
    {
      "anonymous": false,
      "inputs": [
        {
          "indexed": true,
          "internalType": "address",
          "name": "owner",
          "type": "address"
        },
        {
          "indexed": true,
          "internalType": "uint256",
          "name": "txIndex",
          "type": "uint256"
        }
      ],
      "name": "ExecuteTransaction",
      "type": "event"
    },
    {
      "constant": false,
      "inputs": [],
      "name": "deposit",
      "outputs": [],
      "payable": true,
      "stateMutability": "payable",
      "type": "function"
    },
    {
      "constant": true,
      "inputs": [],
      "name": "getOwners",
      "outputs": [
        {
          "internalType": "address[]",
          "name": "",
          "type": "address[]"
        }
      ],
      "payable": false,
      "stateMutability": "view",
      "type": "function"
    },
    {
      "constant": true,
      "inputs": [],
      "name": "getTransactionCount",
      "outputs": [
        {
          "internalType": "uint256",
          "name": "",
          "type": "uint256"
        }
      ],
      "payable": false,
      "stateMutability": "view",
      "type": "function"
    },
    {
      "constant": true,
      "inputs": [
        {
          "internalType": "uint256",
          "name": "_txIndex",
          "type": "uint256"
        }
      ],
      "name": "getTransaction",
      "outputs": [
        {
          "internalType": "address",
          "name": "to",
          "type": "address"
        },
        {
          "internalType": "uint256",
          "name": "value",
          "type": "uint256"
        },
        {
          "internalType": "bytes",
          "name": "data",
          "type": "bytes"
        },
        {
          "internalType": "bool",
          "name": "executed",
          "type": "bool"
        },
        {
          "internalType": "uint256",
          "name": "numConfirmations",
          "type": "uint256"
        }
      ],
      "payable": false,
      "stateMutability": "view",
      "type": "function"
    },
    {
      "constant": false,
      "inputs": [
        {
          "internalType": "address",
          "name": "_to",
          "type": "address"
        },
        {
          "internalType": "uint256",
          "name": "_value",
          "type": "uint256"
        },
        {
          "internalType": "bytes",
          "name": "_data",
          "type": "bytes"
        }
      ],
      "name": "submitTransaction",
      "outputs": [],
      "payable": false,
      "stateMutability": "nonpayable",
      "type": "function"
    },
    {
      "constant": false,
      "inputs": [
        {
          "internalType": "uint256",
          "name": "_txIndex",
          "type": "uint256"
        }
      ],
      "name": "confirmTransaction",
      "outputs": [],
      "payable": false,
      "stateMutability": "nonpayable",
      "type": "function"
    },
    {
      "constant": false,
      "inputs": [
        {
          "internalType": "uint256",
          "name": "_txIndex",
          "type": "uint256"
        }
      ],
      "name": "executeTransaction",
      "outputs": [],
      "payable": false,
      "stateMutability": "nonpayable",
      "type": "function"
    },
    {
      "constant": false,
      "inputs": [
        {
          "internalType": "uint256",
          "name": "_txIndex",
          "type": "uint256"
        }
      ],
      "name": "revokeTransaction",
      "outputs": [],
      "payable": false,
      "stateMutability": "nonpayable",
      "type": "function"
    }
  ],
  "bytecode": "0x60806040523480156200001157600080fd5b5060405162001c5538038062001c55833981810160405260408110156200003757600080fd5b81019080805160405193929190846401000000008211156200005857600080fd5b838201915060208201858111156200006f57600080fd5b82518660208202830111640100000000821117156200008d57600080fd5b8083526020830192505050908051906020019060200280838360005b83811015620000c6578082015181840152602081019050620000a9565b5050505090500160405260200180519060200190929190505050600082511162000158576040517f08c379a000000000000000000000000000000000000000000000000000000000815260040180806020018281038252600f8152602001807f6f776e657273207265717569726564000000000000000000000000000000000081525060200191505060405180910390fd5b6000811180156200016a575081518111155b620001c1576040517f08c379a000000000000000000000000000000000000000000000000000000000815260040180806020018281038252602881526020018062001c2d6028913960400191505060405180910390fd5b60008090505b82518110156200041b576000838281518110620001e057fe5b60200260200101519050600073ffffffffffffffffffffffffffffffffffffffff168173ffffffffffffffffffffffffffffffffffffffff1614156200028e576040517f08c379a000000000000000000000000000000000000000000000000000000000815260040180806020018281038252600d8152602001807f696e76616c6964206f776e65720000000000000000000000000000000000000081525060200191505060405180910390fd5b600160008273ffffffffffffffffffffffffffffffffffffffff1673ffffffffffffffffffffffffffffffffffffffff16815260200190815260200160002060009054906101000a900460ff16156200034f576040517f08c379a00000000000000000000000000000000000000000000000000000000081526004018080602001828103825260108152602001807f6f776e6572206e6f7420756e697175650000000000000000000000000000000081525060200191505060405180910390fd5b60018060008373ffffffffffffffffffffffffffffffffffffffff1673ffffffffffffffffffffffffffffffffffffffff16815260200190815260200160002060006101000a81548160ff02191690831515021790555060008190806001815401808255809150509060018203906000526020600020016000909192909190916101000a81548173ffffffffffffffffffffffffffffffffffffffff021916908373ffffffffffffffffffffffffffffffffffffffff16021790555050508080600101915050620001c7565b508060028190555050506117f880620004356000396000f3fe6080604052600436106100a75760003560e01c8063a0e67e2b11610064578063a0e67e2b14610460578063c01a8c84146104cc578063c642747414610507578063d0549b85146105f9578063d0e30db014610624578063ee22610b1461062e576100a7565b8063025e7c27146101165780632e7700f0146101915780632f54bf6e146101bc57806333ea3dc814610225578063735631ad146103255780639ace38c214610360575b3373ffffffffffffffffffffffffffffffffffffffff167f90890809c654f11d6e72a28fa60149770a0d11ec6c92319d6ceb2bb0a4ea1a15343073ffffffffffffffffffffffffffffffffffffffff1631604051808381526020018281526020019250505060405180910390a2005b34801561012257600080fd5b5061014f6004803603602081101561013957600080fd5b8101908080359060200190929190505050610669565b604051808273ffffffffffffffffffffffffffffffffffffffff1673ffffffffffffffffffffffffffffffffffffffff16815260200191505060405180910390f35b34801561019d57600080fd5b506101a66106a5565b6040518082815260200191505060405180910390f35b3480156101c857600080fd5b5061020b600480360360208110156101df57600080fd5b81019080803573ffffffffffffffffffffffffffffffffffffffff1690602001909291905050506106b2565b604051808215151515815260200191505060405180910390f35b34801561023157600080fd5b5061025e6004803603602081101561024857600080fd5b81019080803590602001909291905050506106d2565b604051808673ffffffffffffffffffffffffffffffffffffffff1673ffffffffffffffffffffffffffffffffffffffff1681526020018581526020018060200184151515158152602001838152602001828103825285818151815260200191508051906020019080838360005b838110156102e65780820151818401526020810190506102cb565b50505050905090810190601f1680156103135780820380516001836020036101000a031916815260200191505b50965050505050505060405180910390f35b34801561033157600080fd5b5061035e6004803603602081101561034857600080fd5b81019080803590602001909291905050506107ee565b005b34801561036c57600080fd5b506103996004803603602081101561038357600080fd5b8101908080359060200190929190505050610a9e565b604051808673ffffffffffffffffffffffffffffffffffffffff1673ffffffffffffffffffffffffffffffffffffffff1681526020018581526020018060200184151515158152602001838152602001828103825285818151815260200191508051906020019080838360005b83811015610421578082015181840152602081019050610406565b50505050905090810190601f16801561044e5780820380516001836020036101000a031916815260200191505b50965050505050505060405180910390f35b34801561046c57600080fd5b50610475610ba6565b6040518080602001828103825283818151815260200191508051906020019060200280838360005b838110156104b857808201518184015260208101905061049d565b505050509050019250505060405180910390f35b3480156104d857600080fd5b50610505600480360360208110156104ef57600080fd5b8101908080359060200190929190505050610c34565b005b34801561051357600080fd5b506105f76004803603606081101561052a57600080fd5b81019080803573ffffffffffffffffffffffffffffffffffffffff169060200190929190803590602001909291908035906020019064010000000081111561057157600080fd5b82018360208201111561058357600080fd5b803590602001918460018302840111640100000000831117156105a557600080fd5b91908080601f016020809104026020016040519081016040528093929190818152602001838380828437600081840152601f19601f820116905080830192505050505050509192919290505050610fc2565b005b34801561060557600080fd5b5061060e61126d565b6040518082815260200191505060405180910390f35b61062c611273565b005b34801561063a57600080fd5b506106676004803603602081101561065157600080fd5b81019080803590602001909291905050506112e2565b005b6000818154811061067657fe5b906000526020600020016000915054906101000a900473ffffffffffffffffffffffffffffffffffffffff1681565b6000600380549050905090565b60016020528060005260406000206000915054906101000a900460ff1681565b60008060606000806000600387815481106106e957fe5b906000526020600020906006020190508060000160009054906101000a900473ffffffffffffffffffffffffffffffffffffffff168160010154826002018360030160009054906101000a900460ff168460050154828054600181600116156101000203166002900480601f0160208091040260200160405190810160405280929190818152602001828054600181600116156101000203166002900480156107d35780601f106107a8576101008083540402835291602001916107d3565b820191906000526020600020905b8154815290600101906020018083116107b657829003601f168201915b50505050509250955095509550955095505091939590929450565b600160003373ffffffffffffffffffffffffffffffffffffffff1673ffffffffffffffffffffffffffffffffffffffff16815260200190815260200160002060009054906101000a900460ff166108ad576040517f08c379a00000000000000000000000000000000000000000000000000000000081526004018080602001828103825260098152602001807f6e6f74206f776e6572000000000000000000000000000000000000000000000081525060200191505060405180910390fd5b806003805490508110610928576040517f08c379a000000000000000000000000000000000000000000000000000000000815260040180806020018281038252601a8152602001807f7472616e73616374696f6e20646f6573206e6f7420657869737400000000000081525060200191505060405180910390fd5b816003818154811061093657fe5b906000526020600020906006020160030160009054906101000a900460ff16156109c8576040517f08c379a000000000000000000000000000000000000000000000000000000000815260040180806020018281038252601c8152602001807f7472616e73616374696f6e20616c72656164792065786563757465640000000081525060200191505060405180910390fd5b6000600384815481106109d757fe5b9060005260206000209060060201905060008160040160003373ffffffffffffffffffffffffffffffffffffffff1673ffffffffffffffffffffffffffffffffffffffff16815260200190815260200160002060006101000a81548160ff02191690831515021790555060018160050160008282540392505081905550833373ffffffffffffffffffffffffffffffffffffffff167f1ad870073a851011d852bccd8634c29c7c0ac2265ba96d2bab01285001a465a860405160405180910390a350505050565b60038181548110610aab57fe5b90600052602060002090600602016000915090508060000160009054906101000a900473ffffffffffffffffffffffffffffffffffffffff1690806001015490806002018054600181600116156101000203166002900480601f016020809104026020016040519081016040528092919081815260200182805460018160011615610100020316600290048015610b835780601f10610b5857610100808354040283529160200191610b83565b820191906000526020600020905b815481529060010190602001808311610b6657829003601f168201915b5050505050908060030160009054906101000a900460ff16908060050154905085565b60606000805480602002602001604051908101604052809291908181526020018280548015610c2a57602002820191906000526020600020905b8160009054906101000a900473ffffffffffffffffffffffffffffffffffffffff1673ffffffffffffffffffffffffffffffffffffffff1681526020019060010190808311610be0575b5050505050905090565b600160003373ffffffffffffffffffffffffffffffffffffffff1673ffffffffffffffffffffffffffffffffffffffff16815260200190815260200160002060009054906101000a900460ff16610cf3576040517f08c379a00000000000000000000000000000000000000000000000000000000081526004018080602001828103825260098152602001807f6e6f74206f776e6572000000000000000000000000000000000000000000000081525060200191505060405180910390fd5b806003805490508110610d6e576040517f08c379a000000000000000000000000000000000000000000000000000000000815260040180806020018281038252601a8152602001807f7472616e73616374696f6e20646f6573206e6f7420657869737400000000000081525060200191505060405180910390fd5b8160038181548110610d7c57fe5b906000526020600020906006020160030160009054906101000a900460ff1615610e0e576040517f08c379a000000000000000000000000000000000000000000000000000000000815260040180806020018281038252601c8152602001807f7472616e73616374696f6e20616c72656164792065786563757465640000000081525060200191505060405180910390fd5b8260038181548110610e1c57fe5b906000526020600020906006020160040160003373ffffffffffffffffffffffffffffffffffffffff1673ffffffffffffffffffffffffffffffffffffffff16815260200190815260200160002060009054906101000a900460ff1615610eeb576040517f08c379a000000000000000000000000000000000000000000000000000000000815260040180806020018281038252601d8152602001807f7472616e73616374696f6e20616c726561647920636f6e6669726d656400000081525060200191505060405180910390fd5b600060038581548110610efa57fe5b9060005260206000209060060201905060018160040160003373ffffffffffffffffffffffffffffffffffffffff1673ffffffffffffffffffffffffffffffffffffffff16815260200190815260200160002060006101000a81548160ff02191690831515021790555060018160050160008282540192505081905550843373ffffffffffffffffffffffffffffffffffffffff167f5cbe105e36805f7820e291f799d5794ff948af2a5f664e580382defb6339004160405160405180910390a35050505050565b600160003373ffffffffffffffffffffffffffffffffffffffff1673ffffffffffffffffffffffffffffffffffffffff16815260200190815260200160002060009054906101000a900460ff16611081576040517f08c379a00000000000000000000000000000000000000000000000000000000081526004018080602001828103825260098152602001807f6e6f74206f776e6572000000000000000000000000000000000000000000000081525060200191505060405180910390fd5b6000600380549050905060036040518060a001604052808673ffffffffffffffffffffffffffffffffffffffff16815260200185815260200184815260200160001515815260200160008152509080600181540180825580915050906001820390600052602060002090600602016000909192909190915060008201518160000160006101000a81548173ffffffffffffffffffffffffffffffffffffffff021916908373ffffffffffffffffffffffffffffffffffffffff16021790555060208201518160010155604082015181600201908051906020019061116692919061171e565b5060608201518160030160006101000a81548160ff021916908315150217905550608082015181600501555050508373ffffffffffffffffffffffffffffffffffffffff16813373ffffffffffffffffffffffffffffffffffffffff167fd5a05bf70715ad82a09a756320284a1b54c9ff74cd0f8cce6219e79b563fe59d86866040518083815260200180602001828103825283818151815260200191508051906020019080838360005b8381101561122c578082015181840152602081019050611211565b50505050905090810190601f1680156112595780820380516001836020036101000a031916815260200191505b50935050505060405180910390a450505050565b60025481565b3373ffffffffffffffffffffffffffffffffffffffff167f90890809c654f11d6e72a28fa60149770a0d11ec6c92319d6ceb2bb0a4ea1a15343073ffffffffffffffffffffffffffffffffffffffff1631604051808381526020018281526020019250505060405180910390a2565b600160003373ffffffffffffffffffffffffffffffffffffffff1673ffffffffffffffffffffffffffffffffffffffff16815260200190815260200160002060009054906101000a900460ff166113a1576040517f08c379a00000000000000000000000000000000000000000000000000000000081526004018080602001828103825260098152602001807f6e6f74206f776e6572000000000000000000000000000000000000000000000081525060200191505060405180910390fd5b80600380549050811061141c576040517f08c379a000000000000000000000000000000000000000000000000000000000815260040180806020018281038252601a8152602001807f7472616e73616374696f6e20646f6573206e6f7420657869737400000000000081525060200191505060405180910390fd5b816003818154811061142a57fe5b906000526020600020906006020160030160009054906101000a900460ff16156114bc576040517f08c379a000000000000000000000000000000000000000000000000000000000815260040180806020018281038252601c8152602001807f7472616e73616374696f6e20616c72656164792065786563757465640000000081525060200191505060405180910390fd5b6000600384815481106114cb57fe5b9060005260206000209060060201905060025481600501541015611557576040517f08c379a000000000000000000000000000000000000000000000000000000000815260040180806020018281038252601a8152602001807f63616e6e6f742065786563757465207472616e73616374696f6e00000000000081525060200191505060405180910390fd5b60018160030160006101000a81548160ff02191690831515021790555060008160000160009054906101000a900473ffffffffffffffffffffffffffffffffffffffff1673ffffffffffffffffffffffffffffffffffffffff1682600101548360020160405180828054600181600116156101000203166002900480156116155780601f106115f3576101008083540402835291820191611615565b820191906000526020600020905b815481529060010190602001808311611601575b505091505060006040518083038185875af1925050503d8060008114611657576040519150601f19603f3d011682016040523d82523d6000602084013e61165c565b606091505b50509050806116d3576040517f08c379a00000000000000000000000000000000000000000000000000000000081526004018080602001828103825260128152602001807f7472616e73616374696f6e206661696c6564000000000000000000000000000081525060200191505060405180910390fd5b843373ffffffffffffffffffffffffffffffffffffffff167f5445f318f4f5fcfb66592e68e0cc5822aa15664039bd5f0ffde24c5a8142b1ac60405160405180910390a35050505050565b828054600181600116156101000203166002900490600052602060002090601f016020900481019282601f1061175f57805160ff191683800117855561178d565b8280016001018555821561178d579182015b8281111561178c578251825591602001919060010190611771565b5b50905061179a919061179e565b5090565b6117c091905b808211156117bc5760008160009055506001016117a4565b5090565b9056fea265627a7a723158201721748e38514dbf9e4b9289ba7ebc31b3964f017ae99e2e0816e7b1916fc8b164736f6c634300050b0032696e76616c6964206e756d626572206f6620726571756972656420636f6e6669726d6174696f6e73",
  "source": "pragma solidity ^0.5.11;\r\n\r\n\r\ncontract MultiSigWallet {\r\n\r\n\taddress[] public owners;\r\n\tmapping(address => bool) public isOwner;\r\n\tuint public numConfirmationsRequired;\r\n\r\n\r\n\r\n\r\n\r\n\tevent Deposit(address indexed sender, uint amount, uint balance);\r\n\tevent SubmitTransaction(address indexed owner, uint indexed txIndex, address indexed to, uint value, bytes data);\r\n\tevent ConfirmTransaction(address indexed owner, uint indexed txIndex);\r\n\tevent RevokeTransaction(address indexed owner, uint indexed txIndex);\r\n\tevent ExecuteTransaction(address indexed owner, uint indexed txIndex);\r\n\r\n\r\n\tstruct Transaction {\r\n\t\taddress to;\r\n\t\tuint value;\r\n\t\tbytes data;\r\n\t\tbool executed;\r\n\t\tmapping(address => bool) isConfirmed;\r\n\t\tuint numConfirmations;\r\n\r\n\t}\r\n\r\n\tTransaction[] public transactions;\r\n\r\n\tconstructor(address[] memory _owners, uint _numConfirmationsRequired) public {\r\n\t\trequire(_owners.length > 0, 'owners required');\r\n\t\trequire(_numConfirmationsRequired > 0 && _numConfirmationsRequired <= _owners.length, 'invalid number of required confirmations');\r\n\r\n\t\tfor (uint i = 0; i < _owners.length; i++) {\r\n\t\t\taddress owner =_owners[i];\r\n\t\t\trequire(owner != address(0), 'invalid owner');\r\n\t\t\trequire(!isOwner[owner], 'owner not unique');\r\n\r\n\t\t\tisOwner[owner] = true;\r\n\t\t\towners.push(owner);\r\n\t\t}\r\n\r\n\t\tnumConfirmationsRequired = _numConfirmationsRequired;\r\n\r\n\t}\r\n\r\n\tfunction() payable external {\r\n\t\temit Deposit(msg.sender, msg.value, address(this).balance);\r\n\r\n\t}\r\n\r\n\t// helper function to easily deposit in remix\r\n\r\n\tfunction deposit() payable external {\r\n\t\temit Deposit(msg.sender, msg.value, address(this).balance);\r\n\r\n\t}\r\n\r\n\tmodifier onlyOwner() {\r\n\t\trequire(isOwner[msg.sender], 'not owner');\r\n\t\t_;\r\n\t}\r\n\r\n\r\n\tfunction getOwners() public view returns (address[] memory) {\r\n\t\treturn owners;\r\n\t}\r\n\r\n\r\n\tfunction getTransactionCount() public view returns (uint) {\r\n\t\treturn transactions.length;\r\n\t}\r\n\r\n\r\n\tfunction getTransaction(uint _txIndex) public view returns (address to, uint value, bytes memory data, bool executed, uint numConfirmations) {\r\n\t\tTransaction storage transaction = transactions[_txIndex];\r\n\r\n\t\treturn (\r\n\t\t\ttransaction.to,\r\n\t\t\ttransaction.value,\r\n\t\t\ttransaction.data,\r\n\t\t\ttransaction.executed,\r\n\t\t\ttransaction.numConfirmations\r\n\t\t);\r\n\t}\r\n\r\n\r\n\r\n\r\n\r\n\tfunction submitTransaction(address _to, uint _value, bytes memory _data) public onlyOwner {\r\n\r\n\t\tuint txIndex = transactions.length;\r\n\r\n\t\ttransactions.push(Transaction({\r\n\t\t\tto: _to,\r\n\t\t\tvalue: _value,\r\n\t\t\tdata: _data,\r\n\t\t\texecuted: false,\r\n\t\t\tnumConfirmations: 0\r\n\r\n\t\t})); \r\n\r\n\t\temit SubmitTransaction(msg.sender, txIndex, _to, _value, _data);\r\n\r\n\t}\r\n\r\n\tmodifier txExists(uint _txIndex) {\r\n\t\trequire(_txIndex < transactions.length, 'transaction does not exist');\r\n\t\t_;\r\n\t}\r\n\r\n\tmodifier notExecuted(uint _txIndex) {\r\n\t\trequire(!transactions[_txIndex].executed, 'transaction already executed');\r\n\t\t_;\r\n\t}\r\n\r\n\tmodifier notConfirmed(uint _txIndex) {\r\n\t\trequire(!transactions[_txIndex].isConfirmed[msg.sender], 'transaction already confirmed');\r\n\t\t_;\r\n\t}\r\n\r\n\tfunction confirmTransaction(uint _txIndex) public onlyOwner txExists(_txIndex) notExecuted(_txIndex) notConfirmed(_txIndex){\r\n\t\tTransaction storage transaction = transactions[_txIndex];\r\n\t\ttransaction.isConfirmed[msg.sender] = true;\r\n\t\ttransaction.numConfirmations +=1;\r\n\r\n\t\temit ConfirmTransaction(msg.sender, _txIndex);\r\n\t}\r\n\r\n\tfunction executeTransaction(uint _txIndex) public onlyOwner txExists(_txIndex) notExecuted(_txIndex) {\r\n\t\tTransaction storage transaction = transactions[_txIndex];\r\n\r\n\t\trequire(transaction.numConfirmations >= numConfirmationsRequired, 'cannot execute transaction');\r\n\r\n\t\ttransaction.executed = true;\r\n\r\n\t\t(bool success, ) = transaction.to.call.value(transaction.value)(transaction.data);\r\n\t\trequire(success, 'transaction failed');\r\n\r\n\t\temit ExecuteTransaction(msg.sender, _txIndex);\r\n\r\n\t}\r\n\r\n\tfunction revokeTransaction(uint _txIndex) public onlyOwner txExists(_txIndex) notExecuted(_txIndex) {\r\n\t\tTransaction storage transaction = transactions[_txIndex];\r\n\t\ttransaction.isConfirmed[msg.sender] = false;\r\n\t\ttransaction.numConfirmations -=1;\r\n\r\n\t\temit RevokeTransaction(msg.sender, _txIndex);\r\n\t}\r\n}\r\n\r\n\r\n",
  "sourcePath": "/mnt/c/pr0/Multisigwallet/contracts/MultiSigWallet.sol",
  "compiler": {
    "name": "solc",
    "version": "0.5.11+commit.c082d0b4.Emscripten.clang"
  },
  "schemaVersion": "3.4.0",
  "updatedAt": "2021-05-28T01:54:31.209Z",
  "networkType": "ethereum",
  "devdoc": {
    "methods": {}
  },
  "userdoc": {
    "methods": {}
  }
}